:1000000012C02CC02BC02AC029C028C027C026C0BF
:1000100025C024C023C022C021C020C01FC01EC0D4
:100020001DC01CC01BC011241FBECFE5D4E0DEBF25
:10003000CDBF10E0A0E6B0E0ECEFF3E002C0059029
:100040000D92AA36B107D9F720E0AAE6B0E001C0C8
:100050001D92A437B207E1F7A8D0CEC1D1CF21B30A
:10006000E82FF0E0E55AFF4F81E090E0008002C009
:10007000880F991F0A94E2F7822B81BB089522B35F
:10008000E82FF0E0E55AFF4F81E090E0008002C0E9
:10009000880F991F0A94E2F7822B82BB089526B33A
:1000A00030E0E82FF0E0E55AFF4FC901008002C0C0
:1000B000959587950A94E2F781709927089500979E
:1000C00041F0EFE9FFE03197F1F700C00000019740
:1000D000F6CF08958A30B0F090E047B3FC01E55ABE
:1000E000FF4F21E030E0C901008002C0880F991F56
:1000F0000A94E2F7613011F4842B02C080958423C6
:1001000087BB0895613009F4AACF21B3E82FF0E04E
:10011000E55AFF4F81E090E0008002C0880F991FF0
:100120000A94E2F78095822381BB08958A30B0F06B
:1001300090E048B3FC01E55AFF4F21E030E0C901EF
:10014000008002C0880F991F0A94E2F7613011F411
:10015000842B02C08095842388BB0895613009F404
:100160008ECF22B3E82FF0E0E55AFF4F81E090E018
:10017000008002C0880F991F0A94E2F780958223BD
:1001800082BB08958A3008F08ACF20B330E0E82F90
:10019000F0E0E55AFF4FC901008002C095958795B0
:1001A0000A94E2F781709927089588E058DF87E084
:1001B00056DF89E054DF61E08AE08CDF86E04FDFC4
:1001C00085E04DDF62E08BE085DF62E08CE082DF7E
:1001D00010926B0010926A0010926F0010926E00E5
:1001E0001092730010927200C5E0D0E086E047DF05
:1001F00085E045DF84E690E062DF60E086E096DF40
:1002000060E085E093DF84E690E059DF219771F7A5
:10021000109271001092700010926D0010926C009C
:1002200002E010E0C1E0D0E083E0E82EF12C809104
:100230007000909171008130910509F456C01CF452
:10024000892B49F0D5C08230910509F487C0039706
:1002500009F4A3C0CDC060E088E068DF60E087E01B
:1002600065DF60E089E062DF60E08AE05FDF8BE00D
:1002700016DF892B51F480916A0090916B000196F2
:1002800090936B0080936A0004C010926B001092F0
:100290006A008CE004DF892B51F480916E0090910C
:1002A0006F00019690936F0080936E0004C01092CF
:1002B0006F0010926E0080916A0090916B00CD9754
:1002C0003CF480916E0090916F00CD970CF490C03B
:1002D000D0937100C093700010926B0010926A006E
:1002E00010926F0010926E0083C088E0C8DE60E05C
:1002F00087E01CDF89E0C3DE60E08AE017DF8091E1
:100300006A0090916B008D33910514F18BE0C7DE8C
:10031000892B71F4109371000093700010926D009E
:1003200010926C0086E0ABDE1092730010927200A7
:100330008CE0B5DE892B09F05BC01093710000934F
:100340007000D0936D00C0936C0085E098DE20C0F3
:10035000019690936B0080936A004AC060E088E049
:10036000E5DE87E08CDE60E089E0E0DE61E08AE0E7
:10037000DDDE80917200909173000196909373007E
:1003800080937200CD97A4F1F0927100E09270001A
:1003900010927300109272002BC060E088E0C6DEFD
:1003A00060E089E0C3DE80916C0090916D00892B44
:1003B00021F487E064DE60E004C060E087E0B6DE40
:1003C00061E08AE0B3DE8091720090917300019643
:1003D0009093730080937200CD9754F0D093710086
:1003E000C093700060E086E0A1DE60E085E09EDE04
:0C03F00082E390E064DE1BCFF894FFCFA6
:0A03FC0002030506070001020304D6
:00000001FF
